:020000040000FA
:060000000A128A110C280F
:10000800FE00030EF0000A08F1000A128A150A28F9
:100018000A128A110F288313C230FD001530FE0022
:10002800A630FF00A03084000A168A1149250A125A
:100038008A117030FD000730FE00FD30FF006D3082
:1000480084000A168A1149250A128A118316031395
:10005800C201C30183120313DF01E001E101E201E0
:10006800E301E401E501E601E701E801E901EA014C
:10007800EB01EC01FA01FB0183010A128A15A72C96
:1000880083120313DA000A168A1197260A128A11B4
:100098001230831203136E06031D53285428E829CF
:1000A8000A168A1138250A128A115130F600913041
:1000B800F7008030F8000A168A1115260A128A11EC
:1000C8007B0883120313D4005407A03E84008313D3
:1000D8000008F600840A00088403F7008630F80058
:1000E8000A168A1115260A128A112030F600913054
:1000F800F700C030F8000A168A1115260A128A116C
:10010800C63083120313A0000A30F2000030F30057
:100118006C08D400D5015408F4005508F5000A12FB
:100128008A1544200A128A117208303E0A168A116A
:1001380058250A128A11C73083120313A0000A3007
:10014800F2000030F3006C08D400D5015408F40024
:100158005508F5000A168A11ED260A128A11720846
:10016800303E0A168A1158250A128A11C83083129D
:100178000313A0003A300A168A1158250A128A1168
:10018800C93083120313A0000A30F2000030F300D4
:100198006B08D400D5015408F4005508F5000A127C
:1001A8008A1544200A128A117208303E0A168A11EA
:1001B80058250A128A11CA3083120313A0000A3084
:1001C800F2000030F3006B08D400D5015408F400A5
:1001D8005508F5000A168A11ED260A128A117208C6
:1001E800303E0A168A1158250A128A112830F6005C
:1001F8009130F7009530F8000A168A1115260A1270
:100208008A11333083120313D600BB30D500DF3098
:10021800D400D40B0D29D50B0D29D60B0D290A16A0
:100228008A1138250A128A119C30F6009030F7009E
:100238008030F8000A168A1115260A128A11303001
:10024800F6009130F700C030F8000A168A1115261A
:100258000A128A110030F6009030F700D030F8000A
:100268000A168A1115260A128A11831203136C08BA
:10027800D400D5015408F2005508F3003C30F400CE
:100288000030F5000A128A11D8270A128A1183123F
:1002980003136B087207E10000300318013073077D
:1002A800E2006208E0006108DF006108F20062080D
:1002B800F3000030F31BFF30F400F50001300A12A0
:1002C8008A111E270A128A11750883120313AD00BA
:1002D8007408AC007308AB007208AA003E30A9008D
:1002E800EB30A8008530A7001F30A6000A128A113B
:1002F800D9230A128A11831203132908C300280874
:10030800C2002708C1002608C0000A128A15AB20BF
:100318000A128A11831203134108E6004008E50017
:100328006108F2006208F3000030F31BFF30F400AC
:10033800F50001300A128A111E270A128A1175085F
:1003480083120313AD007408AC007308AB00720885
:10035800AA003D30A900F530A800C230A7008F30B0
:10036800A6000A128A11D9230A128A1183120313CA
:100378002908C3002808C2002708C1002608C000B1
:100388000A128A15AB200A128A1183120313410834
:10039800E8004008E7006509D4006609D500D40ADA
:1003A8000319D50A67085402D6006808031C680AAE
:1003B8005502D70061085607E30062080318620A6D
:1003C8005707E400071512151F305A06031DED29BB
:1003D800EE29F229071112110530EF006C08D4003C
:1003E800D5015408F2005508F3003C30F400003001
:1003F800F5000A128A11D8270A128A1183120313E8
:100408006B087207E1000030031801307307E2003F
:1004180008307B020318112A122A692A65085F022C
:10042800D4006608031C660A6002D50055086202FB
:10043800031D202A54086102031C232A242A302A77
:100448004530F6009130F7008B30F8000A168A1113
:1004580015260A128A111E2B6509D4006609D500D3
:10046800D40A0319D50A63085402D6006408031C89
:10047800640A5502D7005F085607D80060080318B9
:10048800600A5707D90059086202031D4D2A580807
:100498006102031C502A512A5D2A5730F600913018
:1004A800F7008B30F8000A168A1115260A128A11ED
:1004B8001E2B4B30F6009130F7008B30F8000A16EF
:1004C8008A1115260A128A111E2B08307B06031D75
:1004D8006E2A6F2A012B6108F2006208F3000030CF
:1004E800F31BFF30F400F50001300A128A111E27B1
:1004F8000A128A11750883120313CB007408CA0004
:100508007308C9007208C8005F08F2006008F300A9
:100518000030F31BFF30F400F50001300A128A1195
:100528001E270A128A11750883120313C70074085C
:10053800C6007308C5007208C4005F08F2006008AE
:10054800F3000030F31BFF30F400F50001300A120D
:100558008A111E270A128A11750883120313AD0027
:100568007408AC007308AB007208AA003E30A900FA
:10057800CC30A800CC30A700CD30A6000A128A11D2
:10058800D9230A128A11831203132908C3002808E1
:10059800C2002708C1002608C0000A168A11C8250B
:1005A8000A128A11831203134308CF004208CE00AF
:1005B8004108CD004008CC000A128A1523210A12EE
:1005C8008A11031CE82AE92AF52A5730F6009130E7
:1005D800F7008B30F8000A168A1115260A128A11BC
:1005E8001E2B4B30F6009130F7008B30F8000A16BE
:1005F8008A1115260A128A111E2B09307B06031D43
:10060800062B072B132B4B30F6009130F7008B305D
:10061800F8000A168A1115260A128A111E2B45306F
:10062800F6009130F7008B30F8000A168A1115266B
:100638000A128A11C63083120313A0000A30F2008E
:100648000030F3006C08D400D5015408F4005508B4
:10065800F5000A128A1544200A128A117208303EDF
:100668000A168A1158250A128A11C73083120313F1
:10067800A0000A30F2000030F3006C08D400D50165
:100688005408F4005508F5000A168A11ED260A12D6
:100698008A117208303E0A168A1158250A128A11E0
:1006A800C83083120313A0003A300A168A1158255D
:1006B8000A128A11C93083120313A0000A30F2000B
:1006C8000030F3006B08D400D5015408F400550835
:1006D800F5000A128A1544200A128A117208303E5F
:1006E8000A168A1158250A128A11CA30831203136E
:1006F800A0000A30F2000030F3006B08D400D501E6
:100708005408F4005508F5000A168A11ED260A1255
:100718008A117208303E0A168A1158250A128A115F
:10072800831203136B08031D9A2B9B2BD82B6C0881
:10073800031D9F2BA02BD82B0711121187140A1603
:100748008A1138250A128A113130F6009030F700E4
:100758008030F8000A168A1115260A128A114030CC
:10076800F6009030F700C030F8000A168A111526F6
:100778000A128A11333083120313D600BB30D50016
:10078800DF30D400D40BC62BD50BC62BD60BC62B0B
:10079800831203138710EF01EF0A1030EE000A16D8
:1007A8008A1138250A128A110800831203132908AE
:1007B8008039B3002908AE002E07B900A81FE52B21
:1007C800E62BE72B391439080319EB2BEC2BFB2B01
:1007D800390A031DF02BF12BF92B0030A90000304A
:1007E800A8000030A7000030A600A817032C00308E
:1007F800A9000030A8000030A7000030A6002D088E
:100808008039FF007F08B3062D08AE002E07B4001C
:10081800AC1F0F2C102C112C341434080319152C70
:10082800162C252C340A031D1A2C1B2C232C0030C3
:10083800AD000030AC000030AB000030AA00AC17AF
:100848002D2C0030AD000030AC000030AB00003083
:10085800AA0034080319312C322C372C3908031D0F
:10086800362C372C402C0030A9000030A80000306E
:10087800A7000030A6001D2F2608F2002C080A1633
:100888008A11EC250A128A11730883120313BF0018
:100898007208BE003E08AE00AF01B001B1013108D8
:1008A800B8003008B7002F08B6002E08B5003F087A
:1008B800AE00AF01B001B1013108BD003008BC0085
:1008C8002F08BB002E08BA002708F2002B080A16CA
:1008D8008A11EC250A128A11730883120313BF00C8
:1008E8007208BE003E08AE00AF01B001B1012E088B
:1008F800B5072F0803110318013E0319842CB60706
:10090800300803110318013E03198B2CB70731086F
:1009180003110318013E0319922CB8073F08AE00D3
:10092800AF01B001B1012E08BA072F08031103184F
:10093800013E0319A02CBB07300803110318013E20
:100948000319A72CBC07310803110318013E03192A
:10095800AE2CBD072808F2002A080A168A11EC25D1
:100968000A128A11730883120313BF007208BE00AB
:100978003E08AE00AF01B001B1012E08B5072F083F
:1009880003110318013E0319CA2CB60730080311D6
:100998000318013E0319D12CB707310803110318B6
:1009A800013E0319D82CB8073F08AE00AF01B001CB
:1009B800B1012E08BA072F0803110318013E0319C5
:1009C800E62CBB07300803110318013E0319ED2C70
:1009D800BC07310803110318013E0319F42CBD07A5
:1009E8000830AE000310B50DB60DB70DB80DAE0B3F
:1009F800F62C2708F2002A080A168A11EC250A1292
:100A08008A11730883120313BF007208BE003E08E0
:100A1800AE003F08AF00B001B1012E08B5072F089E
:100A280003110318013E03191A2DB60730080311E4
:100A38000318013E0319212DB707310803110318C4
:100A4800013E0319282DB8072608F2002B080A16BC
:100A58008A11EC250A128A11730883120313BF0046
:100A68007208BE003E08AE003F08AF00B001B101F9
:100A78002E08B5072F0803110318013E0319452D49
:100A8800B607300803110318013E03194C2DB707A8
:100A9800310803110318013E0319532DB807083014
:100AA800AE000310B50DB60DB70DB80DAE0B552D34
:100AB8002608F2002A080A168A11EC250A128A1159
:100AC800730883120313BF007208BE003E08AE000D
:100AD8003F08AF00B001B1012E08B5072F08031178
:100AE8000318013E0319792DB607300803110318BE
:100AF800013E0319802DB707310803110318013E81
:100B08000319872DB8072708F2002C080A168A113E
:100B1800EC250A128A11730883120313BF007208A6
:100B2800BE003E08AE003F08AF00B001B1012E087C
:100B3800BA072F0803110318013E0319A42DBB0798
:100B4800300803110318013E0319AB2DBC07310807
:100B580003110318013E0319B22DBD072808F2003E
:100B68002B080A168A11EC250A128A1173088312B7
:100B78000313BF007208BE003E08AE003F08AF0076
:100B8800B001B1012E08BA072F0803110318013E5E
:100B98000319CF2DBB07300803110318013E0319B1
:100BA800D62DBC07310803110318013E0319DD2DAA
:100BB800BD072808F2002C080A168A11EC250A122B
:100BC8008A11730883120313BF007208BE003E081F
:100BD800AE003F08AF00B001B10108300310AE0D00
:100BE800AF0DB00DB10DFF3E031DF22D2E08BA0753
:100BF8002F0803110318013E0319032EBB07300801
:100C080003110318013E03190A2EBC07310803110A
:100C18000318013E0319112EBD073508AE0036082A
:100C2800AF003708B0003808B10018300310B10C15
:100C3800B00CAF0CAE0CFF3E031D1A2E2E08BA07DF
:100C48002F0803110318013E03192B2EBB07300888
:100C580003110318013E0319322EBC073108031192
:100C68000318013E0319392EBD070830AE000310E2
:100C7800B50DB60DB70DB80DAE0B3B2E39083407C0
:100C8800AE00AF01AF0D2E08823EBE002F0803183C
:100C9800013EFF3EBF006D2E0130AE000310BA0DBD
:100CA800BB0DBC0DBD0DAE0B522EB81F5C2E5D2EBC
:100CB8005E2E3A140130AE000310B50DB60DB70D17
:100CC800B80DAE0B602EFF30BE070318BF0AFF3009
:100CD800BF07BC1F702E712E502EB401B81F752E81
:100CE800762E922EFF303505AE00FF303605AF0068
:100CF800FF303705B0007F303805B10031083004C7
:100D08002F042E040319892E8A2E8D2EB401B40ABD
:100D1800922E3A1C902E912E922E8A2E3408031968
:100D2800962E972EC82E0130BA07003003180130CE
:100D3800BB07003003180130BC070030031801302E
:100D4800BD073D1CA82EA92EC82E3A08AE003B08A8
:100D5800AF003C08B0003D08B1000130B200310DD1
:100D6800B10CB00CAF0CAE0CB20BB32E3108BD00F9
:100D78003008BC002F08BB002E08BA000130BE079F
:100D88000318BF0A0030BF073F08803AFF008030D1
:100D98007F02031DD12EFF303E02031CD42ED52E18
:100DA800E02E7F3083120313BD008030BC0000307A
:100DB800BB000030BA00112F831203133F08803A9A
:100DC800FF0080307F02031DEB2E01303E02031826
:100DD800EE2EEF2EFB2E003083120313BD000030E1
:100DE800BC000030BB000030BA00B301112F8312E1
:100DF80003133E08B900FF30BA05FF30BB057F304A
:100E0800BC050030BD05391C0A2F0B2F0C2FBC1751
:100E18003908AE0003102E0CBD003308FF007F0810
:100E2800BD043D08A9003C08A8003B08A7003A08F3
:100E3800A600080083120313A00020080319252F19
:100E4800262F3A2FF51F292F2A2F3A2F7209A20091
:100E58007309A3007409A4007509A500A20A03195F
:100E6800A30A0319A40A0319A50A422F7508A500A5
:100E78007408A4007308A3007208A200750874041B
:100E880073047204031D492F4A2F532F0030F500B5
:100E98000030F4000030F3000030F200D72F963015
:100EA800A100632F0130FF007F08A1070130031064
:100EB800A50CA40CA30CA20CFF3E031D5B2FFE3057
:100EC8002505031D682F692F562F852F0130FF0038
:100ED8007F08A1070130A207003003180130A307DB
:100EE800003003180130A407003003180130A507AB
:100EF80001300310A50CA40CA30CA20CFF3E031D8B
:100F08007D2FFF302505031D8A2F8B2F6A2F972FE2
:100F18000130A1020130F6000310A20DA30DA40DAB
:100F2800A50DF60B902FA41B9A2F9B2FA12F0230F3
:100F380021020318A02FA12F8C2F2118A42FA52F31
:100F4800AD2FFF30A205FF30A3057F30A405FF3089
:100F5800A5050310A10C2108F600F701F801F90115
:100F680018300310F60DF70DF80DF90DFF3E031DAF
:100F7800B52F7608A2047708A3047808A404790892
:100F8800A50420080319C92FCA2FCF2FF51FCD2F6D
:100F9800CE2FCF2FA5172508F5002408F400230825
:100FA800F3002208F2000800F601F701721CDD2F99
:100FB800DE2FE42F7408F6070318F70A7508F707F9
:100FC80001300310F40DF50DFF3E031DE52F013030
:100FD8000310F30CF20CFF3E031DEC2F7208730490
:100FE800031DF72FF82FDA2F7708F3007608F200A1
:080FF80008000134103401343B
:10100200FA308316031392008C1483120313121105
:101012000800831203138C1C0F2810283D2801306E
:1010220083160313C2070318C30A0030C307203014
:1010320042064E3003194306031D202821283B286F
:10104200C201C301831203136B08031929282A283A
:101052002D280130EB023B286B08031D3128322872
:101062003B286C080319362837283B280130EC024C
:101072003B30EB0083128C1071088A00700E8300E3
:10108200FE0E7E0E0900F701F31F4828492850285A
:10109200F209F309F20A0319F30AF701F70AF51F35
:1010A200532854285D28F409F509F40A0319F50AAE
:1010B2000130FF007F08F706F801F9017208730496
:1010C2000319642865289C28F601F60A7328013062
:1010D2000310F20DF30DFF3E031D69280130FF00DE
:1010E2007F08F607F31F7628772868280130031057
:1010F200F80DF90DFF3E031D782873087502031DD4
:10110200842872087402031C872888288F28720892
:10111200F4027308031CF503F5027814013003107E
:10112200F30CF20CFF3E031D90280130F602031D62
:101132009B289C28772877080319A028A128A6288D
:10114200F809F909F80A0319F90A7908F300780885
:10115200F2000800031083120313420D430DC9006D
:101162004908031DB528B628BF280030C300003047
:10117200C2000030C1000030C00022294008C40073
:101182004108C5004208C6004308C7001F300310CB
:10119200C70CC60CC50CC40CFF3E031DC82844086E
:1011A200C800C217FF30C005FF30C105FF30C205BD
:1011B2000030C3059630C902C91FE028E128FB2888
:1011C2004908803A973E0318E728E828E928B62814
:1011D20001300310C30CC20CC10CC00CFF3E031D36
:1011E200EA280130FF007F08C907031DF928FA2801
:1011F200E928122920304902031C002901290D295E
:10120200B6280130C4000310C00DC10DC20DC30DBC
:10121200C40B04290130C9024908031D11291229EE
:10122200022948080319162917292229C009C109C8
:10123200C209C309C00A0319C10A0319C20A031960
:10124200C30A08000030831203134805D00000309F
:101252004905D10080304A05D2007F304B05D300CA
:101262005308520451045004031D382939294129D5
:101272000030CB000030CA000030C9000030C80086
:1012820000304C05D00000304D05D10080304E05B5
:10129200D2007F304F05D30053085204510450044A
:1012A200031D542955295D290030CF000030CE009E
:1012B2000030CD000030CC00CB1F60296129852988
:1012C2000030D0000030D1000030D2008030D30096
:1012D2004808D0024908031C490F70297129D1021C
:1012E2004A08031C4A0F76297729D2024B08031CAD
:1012F2004B0F7C297D29D3025308CB005208CA0028
:101302005108C9005008C800CF1F88298929AD2972
:101312000030D0000030D1000030D2008030D30045
:101322004C08D0024D08031C4D0F98299929D1026F
:101332004E08031C4E0F9E299F29D2024F08031C00
:101342004F0FA429A529D3025308CF005208CE007B
:101352005108CD005008CC008030CB068030CF063B
:101362004F084B02031DBF294E084A02031DBF2925
:101372004D084902031DBF294C0848020318C2291F
:10138200C329C5290310C62903140800942A213051
:1013920083120313EB00EC01BA2A293083120313E0
:1013A200EB00CC292D3083120313EB00CC297A08F1
:1013B200003A0319CE29013A0319C829033A03193D
:1013C200CE29013A0319D329073A0319D329BA2A94
:1013D2002B3083120313EB00CC2932308312031318
:1013E200EB00CC29393083120313EB00CC297A08A5
:1013F200003A0319EE29013A0319E929033A0319BC
:10140200EE29013A0319F329073A0319F329BA2AF3
:101412001A3083120313EB00CC291F3083120313FB
:10142200EB00CC297A08003A0319092A013A031978
:10143200092A033A0319092A013A03190E2A073A1B
:1014420003190E2ABA2A103083120313EB00EC019F
:10145200EC0ABA2A243083120313EB00282A243020
:1014620083120313EB00CC291D3083120313EB000C
:10147200CC292E3083120313EB00CC293530831292
:101482000313EB00CC2983120313EB01282A7A08F9
:10149200003A03193F2A013A03193A2A033A031977
:1014A2003F2A013A0319442A073A0319442ABA2A5D
:1014B200123083120313EB00CC291430831203136E
:1014C200EB00CC297A08003A03195E2A013A031983
:1014D200592A033A03195E2A013A03195E2A073A86
:1014E20003195E2ABA2A063083120313EB00CC29B1
:1014F200103083120313EB00CC291530831203132F
:10150200EB00CC297A08003A03197E2A013A031922
:10151200792A033A03197E2A013A0319092A073A5A
:101522000319092ABA2A7B08003A0319D829013A71
:101532000319F829033A0319132A013A0319242A31
:10154200073A03192B2A013A0319302A033A0319DD
:10155200352A013A0319482A0F3A0319632A013A34
:101562000319742A033A0319832A013A0319832AB5
:10157200BA2A080083120313A40010306E06031D5A
:10158200C32AC42ACA2A0A168A1138250A128A15B7
:10159200FB013730831203132406031DD12AD22AFA
:1015A200E22A0130FF007F08FB070A168A1138255C
:1015B2000A128A150C307B06031DE02AE12AE22A70
:1015C200FB012130F6009030F7008030F8000A1657
:1015D2008A1115260A128A15C03083120313A0003D
:1015E2002A300A168A1158250A128A150A307B02F5
:1015F2000318FC2AFD2A3D2B7B0883120313A20049
:101602002207A03E840083130008F600840A000823
:101612008403F700C230F8000A168A1115260A124E
:101622008A157B0883120313A2002207A23E8400BC
:1016320083130008F600840A00088403F70092303E
:10164200F8000A168A1115260A128A157B088312D7
:101652000313A2002207A43E840083130008F600AD
:10166200840A00088403F700D230F8000A168A11AF
:1016720015260A128A15B02B0A307B06031D422B4F
:10168200432B7B2B7B0883120313A2002207A03E6D
:10169200840083130008F600840A00088403F7001C
:1016A200C230F8000A168A1115260A128A157B081A
:1016B20083120313A2002207A23E840083130008B0
:1016C200F600840A00088403F7009230F8000A1634
:1016D2008A1115260A128A15831603132008F600AA
:1016E2002108F700D230F8000A168A1115260A12CC
:1016F2008A15B02B0B307B06031D802B812BB02B60
:101702007B0883120313A2002207A03E84008313E6
:101712000008F600840A00088403F700C230F800CB
:101722000A168A1115260A128A158316031320082F
:10173200F6002108F7009230F8000A168A111526E1
:101742000A128A15831603132208F6002308F700EB
:10175200D230F8000A168A1115260A128A150800D4
:1017620083120313A40011306E06031DB92BBA2B8A
:10177200C02BFA010A168A1138250A128A15373047
:10178200831203132406031DC72BC82BD82B013049
:10179200FF007F08FA0705307A06031DD12BD22BF2
:1017A200D32BFA010A168A1138250A128A155D30DE
:1017B200F6009030F7008030F8000A168A111526DC
:1017C2000A128A15C03083120313A0002A300A16A7
:1017D2008A1158250A128A1503307A020318F22B4D
:1017E200F32B332C7A0883120313A2002207B83E8C
:1017F200840083130008F600840A00088403F700BB
:10180200C230F8000A168A1115260A128A157A08B9
:1018120083120313A2002207BA3E84008313000836
:10182200F600840A00088403F7009230F8000A16D2
:101832008A1115260A128A157A0883120313A20046
:101842002207BC3E840083130008F600840A0008C5
:101852008403F700D230F8000A168A1115260A12FC
:101862008A15A62C03307A06031D382C392C712CCC
:101872007A0883120313A2002207B83E840083135E
:101882000008F600840A00088403F700C230F8005A
:101892000A168A1115260A128A157A088312031368
:1018A200A2002207BA3E840083130008F600840ACD
:1018B20000088403F7009230F8000A168A111526F0
:1018C2000A128A15831603133808F6003908F7003E
:1018D200D230F8000A168A1115260A128A15A62C89
:1018E20004307A06031D762C772CA62C7A088312F4
:1018F2000313A2002207B83E840083130008F600F7
:10190200840A00088403F700C230F8000A168A111C
:1019120015260A128A15831603133808F6003908A9
:10192200F7009230F8000A168A1115260A128A1553
:10193200831603133A08F6003B08F700D230F8008A
:101942000A168A1115260A128A1508000A168A1121
:101952006D250A128A1501300A168A11A1270A1268
:101962008A154F30F6009030F7008130F8000A16E1
:101972008A1115260A128A15C830F6009030F7002F
:10198200C430F8000A168A1115260A128A15113077
:10199200F6009030F7009130F8000A168A111526E9
:1019A2000A128A15E82CB83083120313DB000B30BD
:1019B200DC000130DB020030031CDC03DC025B0ACA
:1019C200031DE72C5C0A031DE72CE82CDA2C0130FE
:1019D2000A168A11A1270A128A152F3A031DF22C20
:1019E200F32CD42C0A168A1146270A128A150130C2
:1019F2000A168A11A1270A128A1583120313DE001E
:101A0200E830DD000130DD025D0A031D092D0A2DDB
:101A1200032DB7305E06031D0F2D102D1A2D6F03F7
:101A2200031D142D152D1A2D0230EF001130EE007A
:101A3200552DB7305E06031D1F2D202D552D02306A
:101A42006F06031D252D262D552D0A128A15C72135
:101A52000A128A15033083120313EF000A168A1141
:101A620038250A128A157730F6009030F700823056
:101A7200F8000A168A1115260A128A15A730F600EE
:101A82009030F700C130F8000A168A1115260A12A2
:101A92008A15D230F6009030F7009130F8000A161D
:101AA2008A1115260A128A152F30831203135E0635
:101AB200031D5C2D5D2D932D05306F06031D622DD8
:101AC200632D932D121507150430EF00932D5E0838
:101AD2000A128A15BB220A128A15A12D5E080A1261
:101AE2008A15B1230A128A15A12D2F305E06031D15
:101AF2007B2D7C2D812D0430EF001230EE00F82C6E
:101B02001F305E06031D862D872DA12DEF01EF0AE2
:101B12001030EE00F82C5E080A128A1144200A12D4
:101B22008A15A12D6F08013A0319682D033A03198A
:101B32006F2D013A0319762D073A03198C2DA12D29
:101B420083120313EE01F82C0A128A110C2875086D
:101B5200803983120313A8007508A0002007AA0089
:101B6200F41FB42DB52DB62D2A142A080319BA2D47
:101B7200BB2DCB2D2A0A031DBF2DC02DC82D003031
:101B8200F5000030F4000030F3000030F200F417EA
:101B9200F501D32D0030F5000030F4000030F300E1
:101BA2000030F20079088039A900290828060319B3
:101BB200DB2DDC2DDD2D28177908A0002007A900D8
:101BC200F81FE42DE52DE62D291429080319EA2D25
:101BD200EB2DFB2D290A031DEF2DF02DF82D0030E2
:101BE200F9000030F8000030F7000030F600F81776
:101BF200F901032E0030F9000030F8000030F70040
:101C02000030F6002A0829020318082E092E2F2E6A
:101C1200281F0C2E0D2E112E8030FF007F08A806E3
:101C22002A08AB002908AA002B08A9007208AB00F9
:101C32007608F2002B08F6007308AB007708F30071
:101C42002B08F7007408AB007808F4002B08F800A2
:101C52007508AB007908F5002B08F900AB012908DB
:101C6200A000A1012108A3002A082002A200031C4F
:101C7200A3032308803AFF0080307F02031D432E16
:101C82001A302202031C462E472E7E2E750874043B
:101C920073047204031D4E2E502E0130512E00305B
:101CA20083120313AB000030F5000030F400003063
:101CB200F3000030F2002908AA00862E2B1C622EA7
:101CC200632E6A2E2B08A0000310200C0138AB00F3
:101CD2006C2E0310AB0C721C6F2E702E712EAB1774
:101CE2000130A000750DF50CF40CF30CF20CA00BF6
:101CF200732E0130FF007F08AA07831203132908FD
:101D02002A02031C852E862E5F2E281B892E8A2EE0
:101D1200D32E2A08031D8E2E8F2E982E0030F5000A
:101D22000030F4000030F3000030F200FF2F76089C
:101D3200F207770803110318013E0319A12EF307D6
:101D4200780803110318013E0319A82EF407790835
:101D520003110318013E0319AF2EF507751CB22EAD
:101D6200B32E872F2B1CB62EB72EBE2E2B08A0000B
:101D72000310200C0138AB00C02E0310AB0C721CF8
:101D8200C32EC42EC52EAB170130A000750DF50C65
:101D9200F40CF30CF20CA00BC72E0130FF007F08ED
:101DA200AA07872F7508803AFF007908803A7F02D8
:101DB200031DE52E78087402031DE52E77087302D1
:101DC200031DE52E760872020318E82EE92E412F34
:101DD200FF30A000FF30A100FF30A200FF30A300BF
:101DE2007608A4007708A5007808A6007908A7005D
:101DF2007208A4027308031C730F002F012FA5029F
:101E02007408031C740F062F072FA6027508031C03
:101E1200750F0C2F0D2FA7022408A0072508031801
:101E2200250F142F152FA10726080318260F1A2F86
:101E32001B2FA20727080318270AA3072308F50068
:101E42002208F4002108F3002008F2008030FF008D
:101E52007F08A806AB09AB0A2B08031D312F322FCE
:101E62004F2F0130F207003003180130F307003022
:101E720003180130F407003003180130F5074F2F23
:101E82007608F2027708031C770FF3027808031C26
:101E9200780FF4027908031C790FF50275087404AF
:101EA20073047204031D562F572F832F2B08031D13
:101EB2005B2F5C2F832F0030F5000030F4000030E0
:101EC200F3000030F200FF2F0130A0000310F20DEA
:101ED200F30DF40DF50DA00B672FAB1F712F722FB1
:101EE200732F72142B1C762F772F7A2F0314AB0DBE
:101EF2007C2F0310AB0D2A080319802F812F832F0B
:101F02000130AA02F41F862F872F652FA901AB1F6C
:101F12008B2F8C2F9A2F2B087F390319912F922FF9
:101F2200952FA901A90A9A2F721C982F992F9A2FDF
:101F3200922F290803199E2F9F2FD32F0130F207CA
:101F4200003003180130F307003003180130F407A2
:101F5200003003180130F507751CB02FB12FD32FB5
:101F62007208A0007308A1007408A2007508A300FB
:101F72000130A400230DA30CA20CA10CA00CA40BF5
:101F8200BB2F2308F5002208F4002108F3002008E3
:101F9200F2002A0A0319CE2FCF2FD32F0130FF00D0
:101FA2007F08AA072A0A0319D72FD82FDD2F2A085C
:101FB200031DDC2FDD2FEB2F0030F5000030F40085
:101FC2000030F3000030F2002A08031DE92FEA2F47
:101FD200EB2FA8012A1CEE2FEF2FF12FF417F52F6C
:101FE2007F30FF007F08F4052A08A0000310200CB0
:101FF200F500A81FFD2FFE2FFF2FF517080035341F
:102002002D3453345434413452345434203436341D
:102012002D34503441345534533445342034003453
:10202200573461347334683469346E34673420341D
:102032004D3461346334683469346E346534003449
:10204200773461347334683469346E3467345F349E
:10205200703472346F346734723461346D340034E6
:10206200703472346F3467342E3463346F346D34A9
:1020720070346C34653474346534643400347234CE
:1020820065346D346F3476346534203463346C34A3
:102092006F34743468346534733400347034723499
:1020A20065347334733420344B34653479343534C5
:1020B200203454346F34003457346134743465340A
:1020C200723420346C346534763465346C343A348A
:1020D200003470346C3465346134733465342034C4
:1020E20063346C346F347334653400345034723476
:1020F200653473347334203453347734693474342C
:1021020063346834003450346F3477346534723455
:1021120069346E34673420344F346E34003464349E
:102122006F346F34723420343A3420346F34703464
:1021320065346E340034463475346E34633474342A
:1021420069346F346E342D342034003453345734B0
:1021520035343A34203453345434413452345434C0
:10216200003441347134753461342034733474343E
:102172006F34723465340034453463346F346334FD
:102182006F34743474346F346E34733400345034B6
:102192006F3477346534723420344F344E34203403
:1021A20000345334573436343A34203453345434AC
:1021B2004F345034003453347434613469346E34DF
:1021C20077346134733468340034443465346C34A5
:1021D20069346334613474346534733400344234A2
:1021E20065346434733468346534653474347334F8
:1021F2000034573461347334683420346F346E34AD
:102202006C3479340034523469346E347334653446
:102212002B34643472347934003457346F346F346D
:102222006C346C3465346E34733400344434723438
:10223200793420346F346E346C347934003454344D
:1022420069346D34653420343A342034003428340F
:102252004D344D343A3453345334293400345434E5
:1022620049344D34453420343A3400344D346534E5
:102272006434693475346D340034573468346934E5
:1022820074346534733400345734613473346834CD
:10229200203400345334703469346E3420340034C2
:1022A200703472346F3467343A34003452346934DF
:1022B2006E347334653400344434613469346C34BC
:1022C20079340034483465346134763479340034F6
:1022D20048346934673468340034413475347434B2
:1022E2006F3400344C346F34773400344D346134FD
:1022F20078340034FF1B852983137F188317000865
:10230200840A0319FF0A08007F087F398A0004083B
:08231200840A0319FF0A82008E
:102A4E008316031306083F38860008008316031307
:102A5E008801091189100A168A1144260A168A114C
:102A6E000800F20101300A168A1186250A168A110B
:102A7E00A630F600F60B412D000008007E088A00F5
:102A8E007F0882000A168A1145250A168A118000CF
:102A9E00840A04087D0603190034FF0A0319FE0A8E
:102AAE00492D83120313A100F20120080A168A1180
:102ABE0086250A168A11F201F20A831203132108DF
:102ACE000A168A1186250A168A1108000A168A1114
:102ADE0027250A168A110A168A112D250A168A1119
:102AEE0083160313071187108312031387100A121C
:102AFE008A1501200A168A110B178B170800F5008C
:102B0E0072188A2D8E2D831203130915912D83129F
:102B1E0003130911750888008914A630F300F30B0E
:102B2E00962D00008312031389101B30F4009E3083
:102B3E00F300F30BA02DF40BA02D000008005D3464
:102B4E00913463349134E63490343E349134DC3431
:102B5E009034BD3490340E349134F03490340434C7
:102B6E00913417349134FA349034B23490346E3444
:102B7E0091347334913437349134693491347734D9
:102B8E009134803083120313C3064708F5004608BC
:102B9E00F4004508F3004408F2004308F900420827
:102BAE00F8004108F7004008F6000A128A15A82519
:102BBE000A168A11750883120313C3007408C20023
:102BCE007308C1007208C000080083120313A4002A
:102BDE00A001A1017208F400F5017408A2007508A5
:102BEE00A300241CFB2DFC2D022E2208A007031887
:102BFE00A10A2308A10701300310A20DA30DFF3E69
:102C0E00031D032E0310A40C2408031D0F2E102EDB
:102C1E00F82D2108F3002008F2000800F2017808D0
:102C2E000A168A1186250A168A11332EF201F20A25
:102C3E007708FF00760884000A168A117B210A168F
:102C4E008A110A168A1186250A168A110130F6078C
:102C5E000318F70A0030F707770883120313FF00F3
:102C6E00760884000A168A117B210A168A11003A08
:102C7E00031D422E432E1D2E0800C330F700CD300B
:102C8E00F600F60B482EF70B482EF20133300A16DB
:102C9E008A1186250A168A111B30F7009E30F6001F
:102CAE00F60B572EF70B572E0000F20133300A1693
:102CBE008A1186250A168A11A630F600F60B652EA5
:102CCE000000F20133300A168A1186250A168A117F
:102CDE00702E712E0000F20130300A168A118625F0
:102CEE000A168A11A630F600F60B7B2E0000F201B2
:102CFE0001300A168A1186250A168A11A630F600A8
:102D0E00F60B872E0000F2010C300A168A1186256A
:102D1E000A168A11A630F600F60B932E0000080054
:102D2E008312031306189C2E9D2EEC2E07111211E2
:102D3E0087140A168A1138250A168A119030F60061
:102D4E009030F7008030F8000A168A1115260A1600
:102D5E008A116A30F6009030F7009030F8000A16AB
:102D6E008A1115260A168A1183120313061CC02E09
:102D7E00C12EBB2E0A168A1138250A168A119C30CE
:102D8E00F6009030F7008030F8000A168A111526EA
:102D9E000A168A113030F6009130F700C030F80074
:102DAE000A168A1115260A168A110030F60090307E
:102DBE00F700D030F8000A168A1115260A168A1165
:102DCE00831203130715121587100800F701F51F5C
:102DDE00F12EF22EF92EF409F509F40A0319F50A6B
:102DEE00F701F70AF31FFC2EFD2E022FF209F3094D
:102DFE00F20A0319F30A720873040319072F082F36
:102E0E00372FF601F60A162F01300310F20DF30DCF
:102E1E00FF3E031D0C2F0130FF007F08F607F31F46
:102E2E00192F1A2F0B2F73087502031D202F7208EE
:102E3E007402031C232F242F2A2F7208F402730806
:102E4E00031CF503F50201300310F30CF20CFF3EE8
:102E5E00031D2B2F0130F602031D362F372F1A2F8D
:102E6E00770803193B2F3C2F412FF409F509F40A7B
:102E7E000319F50A7508F3007408F20008008312AE
:102E8E000313A5012508803EA000FF300A168A1103
:102E9E0058250A168A110130FF007F08831203138A
:102EAE00A50710302502031C5D2F5E2F492F84309D
:102EBE00F6009030F700C230F8000A168A11152677
:102ECE000A168A111130F6009030F7009130F80092
:102EDE000A168A1115260A168A1183120313A601E1
:102EEE002608D03EA000FF300A168A1158250A1671
:102EFE008A110130FF007F0883120313A6071030DA
:102F0E002602031C8B2F8C2F772F1A30831203135C
:102F1E00A4005E30A3006D30A200A20B942FA30B71
:102F2E00942FA40B942F9B2F0A168A1138250A165C
:102F3E008A110800F3007308031DA62FA72FAC2FCC
:102F4E008312031306083F39FF2F3F3083120313FA
:102F5E000605F2003F3072060319B62FB72FC22FA7
:102F6E006D080319BB2FBC2FC22FED01EA01060815
:102F7E003F39E900FE2F6D08031DC62FC72FD92F2D
:102F8E0006083F396906031DCD2FCE2FD92F1E30CF
:102F9E006A020318D32FD42FD92F0130FF007F08D8
:102FAE00EA07FE2F1E306A06031DDE2FDF2FE62FE7
:102FBE000130FF007F08EA0769088038FF2F3F3095
:102FCE000605F2003F307206031DEE2FEF2FFE2F87
:102FDE006D08031DF32FF42FFE2FED01ED0A1E30A9
:102FEE006A020318FB2FFC2FFE2F6908FF2F3F30BC
:022FFE000800C9
:02400E00FB3F76
:00000001FF
